S010000050726F6A656374312E737265630C
S113000087C0000077C10000EFC10000A0C000005D
S11300109EC000009CC000009AC0000098C0000070
S113002096C0000094C0000092C0000090C0000080
S11300308EC000008CC000008AC0000088C0000090
S113004086C0000084C0000082C0000080C00000A0
S11300507EC000007CC000007AC0000078C00000B0
S113006076C0000074C0000072C0000070C00000C0
S11300706EC000006CC000006AC0000068C00000D0
S113008066C0000064C0000062C00000C7C0000079
S11300905EC000005CC000005AC0000058C00000F0
S11300A056C0000054C0000052C0000050C0000000
S11300B04EC000004CC000004AC0000048C0000010
S11300C046C0000044C0000042C0000040C0000020
S11300D03EC000003CC000003AC0000038C0000030
S11300E036C00000A201A501AB01B101D301BA01E0
S11300F0D301C401D301D301CE011C021F02250286
S11301002B024D0234024D023E024D024D024802C2
S113011011241FBECFEFD1E2DEBFCDBF00E00CBF84
S113012012E0A0E0B2E0E0E3F6E000E00BBF02C0C2
S113013007900D92A030B107D9F722E0A0E0B2E019
S113014001C01D92AA30B207E1F7C8D16FC258CFDF
S1130150209102028091010290E0820F911D209172
S11301600002820F911D9195819591098093090256
S1130170881B9109909308020895EADF8EE725D23F
S11301808091020222D280E020D2809101021DD20D
S1130190809100021AD28091080217D2809109023C
S11301A014D28FEE12C2089548E060E875E280E050
S11301B090E0B1D189E08093020282E08093000252
S11301C0DCCF08958093000283E080930202D5CFB0
S11301D008958F3108F08EE196E0909302028093A7
S11301E00002CBCF08958FEF84B97894E1E7F0E073
S11301F0808180831092900082E08093910083EA52
S11302008093800081E08093810010928900109295
S1130210880010928B0010928A0008951F920F920A
S11302200FB60F9211240BB60F928F939F93EF93F7
S1130230FF939091040280910302981304C0E1E7B4
S1130240F0E08081808380910502882381F0909181
S1130250030280910402981720F4815080930402D1
S11302600AC0891740F48F5F8093040204C0809110
S113027003028093040280910602811110C010923F
S11302808B0010928A008091040290E0880F991FDD
S1130290880F991F90938900809388000FC0109253
S11302A08900109288008091040290E0880F991FC1
S11302B0880F991F90938B0080938A00FF91EF9190
S11302C09F918F910F900BBE0F900FBE0F901F90B8
S11302D018958093030260930502E1E7F0E08081C2
S11302E08160808308959091060281E0892780933C
S11302F0060208951F920F920FB60F9211240BB6A7
S11303000F922F933F934F935F936F937F938F93AA
S11303109F93AF93BF93EF93FF938DB38DBB809166
S11303200702E1E0E80FE09307028E2F90E0FC0162
S11303303197EB30F10508F036C08827EE58FF4FAF
S11303408F4F6CC182E03EDF2EC082E03BDF60E075
S11303508FEFBFDF28C082E035DF60E08AE0B9DFDD
S113036022C082E02FDF60E084E6B3DF61E08FEF3C
S1130370B0DF19C082E026DF60E080E0AADFB3DFEF
S113038061E088ECA6DF0FC082E01CDF60E080E063
S1130390A0DFA9DF61E084EB9CDF05C083E012DF0E
S11303A060E080E096DF2FEF89E698E121508040FD
S11303B09040E1F700C000008FEF8CBB8DB38360E9
S11303C08DBBFF91EF91BF91AF919F918F917F91E1
S11303D06F915F914F913F912F910F900BBE0F90B2
S11303E00FBE0F901F9018951F920F920FB60F9289
S11303F011240BB60F922F933F934F935F936F93F8
S11304007F938F939F93AF93BF93EF93FF938DB39A
S11304108DBB80910702E1E0E80FE09307028E2F85
S113042090E0FC013197EB30F10508F036C08827E5
S1130430E358FF4F8F4FF2C082E0C4DE2EC082E04B
S1130440C1DE60E08FEF45DF28C082E0BBDE60E004
S11304508AE03FDF22C082E0B5DE60E084E639DF77
S113046061E08FEF36DF19C082E0ACDE60E080E04F
S113047030DF39DF61E088EC2CDF0FC082E0A2DEE0
S113048060E080E026DF2FDF61E084EB22DF05C03F
S113049083E098DE60E080E01CDF2FEF89E698E1DE
S11304A0215080409040E1F700C000008FEF8CBBEA
S11304B08DB383608DBBFF91EF91BF91AF919F91FD
S11304C08F917F916F915F914F913F912F910F90F9
S11304D00BBE0F900FBE0F901F901895789483DE7B
S11304E063DE8FEF84B911B88FE0809369008EE1E9
S11304F070DE10920702009908C081E063DE60E0BC
S113050082E3E7DE61E08FEFE4DE8FEF8CBB8DB337
S113051083608DBBF0CFCF92DF92EF92FF920F9367
S11305201F938B019C010C52114021093109053D97
S1130530104C2140310508F041C0453008F43EC05C
S11305404930E0F520E22093D00028E12093D10047
S11305504550440F4093D2006B017C0120E8C20E49
S113056024E8D21E2EE1E21EF11CCC0CDD1CEE1C94
S1130570FF1CCC0CDD1CEE1CFF1CCC0CDD1CEE1C8B
S1130580FF1CDC01CB01880F991FAA1FBB1F880F1A
S1130590991FAA1FBB1F9C01AD01220F331F441FCB
S11305A0551F220F331F441F551FC701B60114D016
S11305B0215031093093D5002093D4001F910F911D
S11305C0FF90EF90DF90CF9008959091D00095FF29
S11305D0FCCF8093D6000895A1E21A2EAA1BBB1B60
S11305E0FD010DC0AA1FBB1FEE1FFF1FA217B307FB
S11305F0E407F50720F0A21BB30BE40BF50B661F11
S1130600771F881F991F1A9469F7609570958095D4
S113061090959B01AC01BD01CF010895EE0FFF1F22
S1130620881F8BBF0790F691E02D1994F894FFCFA3
S9030000FC
