S010000050726F6A656374312E737265630C
S113000071C0000081C000007FC000007DC00000FE
S11300107BC0000079C0000077C0000075C00000FC
S113002073C0000071C000006FC000006DC000000C
S11300306BC0000069C0000067C0000065C000001C
S113004063C0000061C000005FC000005DC000002C
S11300505BC0000059C0000057C0000055C000003C
S113006053C0000051C000004FC000004DC000004C
S11300704BC0000049C0000047C0000045C000005C
S113008043C0000041C000003FC0000057C0000052
S11300903BC0000039C0000037C0000035C000007C
S11300A033C0000031C000002FC000002DC000008C
S11300B02BC0000029C0000027C0000025C000009C
S11300C023C0000021C000001FC000001DC00000AC
S11300D01BC0000019C0000017C0000015C00000BC
S11300E013C0000011241FBECFEFD1E2DEBFCDBF8D
S11300F000E00CBF22E0A0E0B2E001C01D92A430F9
S1130100B207E1F7CFD017C27BCF7894E1E7F0E0F4
S1130110808180831092900082E08093910083EA32
S11301208093800081E08093810010928900109276
S1130130880010928B0010928A0008951F920F92EB
S11301400FB60F9211240BB60F92CF92DF92EF925B
S1130150FF922F933F934F935F936F937F938F936C
S11301609F93AF93BF93CF93DF93EF93FF9320912C
S113017000022223F9F060910202C62FD0E08091A0
S1130180010290E08C1B9D0B622F70E0ADD1072E15
S1130190000C880B990B1CD16B017C01BE01DD0F97
S11301A0880B990B15D1A701960180D0E3D06093F9
S11301B0020204C080910102809302028091030232
S11301C0811110C010928B0010928A00809102025B
S11301D090E0880F991F880F991F9093890080934E
S11301E088000FC01092890010928800809102024A
S11301F090E0880F991F880F991F90938B0080932C
S11302008A009091010280910202981304C0E1E7F0
S1130210F0E080818083FF91EF91DF91CF91BF91D6
S1130220AF919F918F917F916F915F914F913F918A
S11302302F91FF90EF90DF90CF900F900BBE0F9017
S11302400FBE0F901F90189580930102E1E7F0E034
S1130250808181608083089511B88FEF84B915B8C7
S1130260009903C06FEF80E0EFDF019903C060E005
S113027080E4EADF029903C060E080E8E5DF0399E7
S113028003C060E080ECE0DF049903C06FEF8FEF00
S1130290DBDF079904C081E080930302E1CF109271
S11302A00302DECF32DFD8DFFFCF5058BB27AA27A7
S11302B00ED0E0C0D1D030F0D6D020F031F49F3F42
S11302C011F41EF4C6C00EF4E095E7FBBCC0E92FA0
S11302D0E2D080F3BA17620773078407950718F012
S11302E071F49EF5FAC00EF4E0950B2EBA2FA02DF2
S11302F00B01B90190010C01CA01A0011124FF27CF
S1130300591B99F0593F50F4503E68F11A16F040C9
S1130310A22F232F342F4427585FF3CF46953795C8
S11303202795A795F0405395C9F77EF41F16BA0B8D
S1130330620B730B840BBAF09150A1F0FF0FBB1F3B
S1130340661F771F881FC2F70EC0BA0F621F731F84
S1130350841F48F4879577956795B795F7959E3FE1
S113036008F0B3CF9395880F08F09927EE0F97956F
S11303708795089598D088F09F5790F0B92F9927C2
S1130380B751A0F0D1F0660F771F881F991F1AF09C
S1130390BA95C9F712C0B13081F09FD0B1E0089589
S11303A09CC0672F782F8827B85F39F0B93FCCF30A
S11303B0869577956795B395D9F73EF49095809592
S11303C0709561957F4F8F4F9F4F0895E89409C0B2
S11303D097FB3EF490958095709561957F4F8F4F74
S11303E09F4F9923A9F0F92F96E9BB279395F6958A
S11303F0879577956795B795F111F8CFFAF4BB0F08
S113040011F460FF1BC06F5F7F4F8F4F9F4F16C06B
S1130410882311F096E911C0772321F09EE8872FF5
S1130420762F05C0662371F096E8862F70E060E0B1
S11304302AF09A95660F771F881FDAF7880F96952A
S1130440879597F9089597F99F6780E870E060E0D1
S113045008959FEF80EC089500240A941616170659
S113046018060906089500240A94121613061406A1
S113047005060895092E0394000C11F4882352F004
S1130480BB0F40F4BF2B11F460FF04C06F5F7F4FBC
S11304908F4F9F4F089557FD9058440F551F59F0A3
S11304A05F3F71F04795880F97FB991F61F09F3F5D
S11304B079F087950895121613061406551FF2CF86
S11304C04695F1DF08C0161617061806991FF1CFD6
S11304D086957105610508940895E894BB276627FD
S11304E07727CB0197F9089597FB072E16F400940C
S11304F006D077FD08D00BD007FC05D03EF49095CC
S113050081959F4F0895709561957F4F0895AA1B1B
S1130510BB1B51E107C0AA1FBB1FA617B70710F0EA
S1130520A61BB70B881F991F5A95A9F7809590951C
S10D0530BC01CD010895F894FFCF3B
S9030000FC
