S010000050726F6A656374312E737265630C
S113000089C00000B0C1000051C20000A2C00000BD
S1130010A0C000009EC000009CC000009AC0000068
S113002098C0000096C0000094C0000092C0000078
S113003090C000008EC000008CC000008AC0000088
S113004088C0000086C0000084C0000082C0000098
S113005080C000007EC000007CC000007AC00000A8
S113006078C0000076C0000074C0000072C00000B8
S113007070C000006EC000006CC000006AC00000C8
S113008068C0000066C0000064C0000000C1000039
S113009060C000005EC000005CC000005AC00000E8
S11300A058C0000056C0000054C0000052C00000F8
S11300B050C000004EC000004CC000004AC0000008
S11300C048C0000046C0000044C0000042C0000018
S11300D040C000003EC000003CC000003AC0000028
S11300E038C00000D801DB01DE01E401EA01F301BC
S11300F0F6010602090219021C021F027B027E029B
S1130100810287028D0296029902A902AC02BC0206
S1130110BF02C20211241FBECFEFD1E2DEBFCDBFAA
S113012000E00CBF12E0A0E0B2E0EAE5F7E000E096
S11301300BBF02C007900D92A030B107D9F722E09F
S1130140A0E0B2E001C01D92AA30B207E1F751D29B
S113015002C356CF8FEF80930101E1EAF0E0808182
S113016081608083E0EAF0E0808183608083808125
S1130170806A808380818F7A8083E8EAF0E011824C
S1130180108211821082089584EF91E09093A90067
S11301908093A80080E593EC9093AB008093AA0031
S11301A008951092A9001092A8001092AB0010922A
S11301B0AA000895992324F09093AB008093AA0099
S11301C00895209102028091010290E0820F911D16
S11301D020910002820F911D919581959109809340
S11301E00902881B9109909308020895EADF8EE7BB
S11301F081D2809102027ED280E07CD28091010281
S113020079D28091000276D28091080273D28091D3
S1130210090270D28FEE6EC2089548E060E875E27C
S113022080E090E00DD289E08093020282E0809326
S11302300002DCCF08958093000283E080930202E1
S1130240D5CF08958F3108F08EE196E090930202A5
S113025080930002CBCF08958FEF84B97894E1E7BF
S1130260F0E0808180831092900082E0809391007E
S113027083EA8093800081E080938100109289005A
S11302801092880010928B0010928A0008951F9299
S11302900F920FB60F9211240BB60F928F939F9368
S11302A0EF93FF9380910502882381F090910302DC
S11302B080910402981720F48150809304020AC0AC
S11302C0891740F48F5F8093040204C08091030275
S11302D08093040280910602811110C010928B0059
S11302E010928A008091040290E0880F991F880F71
S11302F0991F90938900809388000FC01092890001
S1130300109288008091040290E0880F991F880F52
S1130310991F90938B0080938A009091040280919E
S11303200302981304C0E1E7F0E080818083FF9129
S1130330EF919F918F910F900BBE0F900FBE0F9076
S11303401F9018958093030260930502E1E7F0E0A3
S113035080818160808308959091060281E08927DD
S11303608093060208951F920F920FB60F921124E4
S11303700BB60F922F933F934F935F936F937F939B
S11303808F939F93AF93BF93EF93FF938DB31DBA56
S1130390809107028F5F8093070290E08C30910573
S11303A008F063C0FC018827EE58FF4F8F4FCBC184
S11303B082E041DF5AC082E03EDF57C082E03BDF8B
S11303C060E08FEFBFDF51C082E035DF60E082E3A1
S11303D0B9DF4BC082E02FDF60E086E9B3DF61E084
S11303E08FEFB0DF42C082E026DF3FC082E023DF30
S11303F0B3DF8FEF9FEFDEDE60E085E0A3DF61E037
S11304008FEFA0DF80E197E2D5DE2FC082E013DF1B
S11304102CC082E010DFA0DF8FEF9FEFCBDE60E027
S113042085E090DF61E088EC8DDF80E197E2C2DE59
S11304301CC082E000DF19C082E0FDDE16C083E04C
S1130440FADE60E080E07EDF87DF60E084E17ADF6F
S113045060E080E077DF2FEF89E698E1215080406B
S11304609040E1F700C000009CDE2FEF85EA9EE09B
S1130470215080409040E1F700C000008FEF8CBB1A
S11304808DB383608DBBFF91EF91BF91AF919F912D
S11304908F917F916F915F914F913F912F910F9029
S11304A00BBE0F900FBE0F901F9018951F920F92C6
S11304B00FB60F9211240BB60F922F933F934F93C5
S11304C05F936F937F938F939F93AF93BF93EF93B8
S11304D0FF938DB31DBA809107028F5F809307024B
S11304E090E08C30910508F063C0FC018827E25845
S11304F0FF4F8F4F28C182E09EDE5AC082E09BDE10
S113050057C082E098DE60E08FEF1CDF51C082E0CC
S113051092DE60E082E316DF4BC082E08CDE60E0B6
S113052086E910DF61E08FEF0DDF42C082E083DEF9
S11305303FC082E080DE10DF8FEF9FEF3BDE60E0A4
S113054085E000DF61E08FEFFDDE80E197E232DEDF
S11305502FC082E070DE2CC082E06DDEFDDE8FEF06
S11305609FEF28DE60E085E0EDDE61E088ECEADE06
S113057080E197E21FDE1CC082E05DDE19C082E0EC
S11305805ADE16C083E057DE60E080E0DBDEE4DEA6
S113059060E084E1D7DE60E080E0D4DE2FEF89E61E
S11305A098E1215080409040E1F700C00000F9DD5F
S11305B02FEF85EA9EE0215080409040E1F700C093
S11305C000008FEF8CBB8DB383608DBBFF91EF91E7
S11305D0BF91AF919F918F917F916F915F914F9157
S11305E03F912F910F900BBE0F900FBE0F901F9055
S11305F01895789431DE11DEADDD8FEF84B911B832
S11306001AB88FE0809369008EE11CDE0099FECF5A
S1130610109207028DB383608DBBB6DD81E00BDEE3
S11306202FE78AE19EEC215080409040E1F700C022
S1130630000060E082E386DE61E08FEF83DEE6CFD8
S1130640CF92DF92EF92FF920F931F938B019C0145
S11306500C52114021093109053D104C214031054E
S113066008F041C0453008F43EC04930E0F520E2CE
S11306702093D00028E12093D1004550440F4093AB
S1130680D2006B017C0120E8C20E24E8D21E2EE1C8
S1130690E21EF11CCC0CDD1CEE1CFF1CCC0CDD1C82
S11306A0EE1CFF1CCC0CDD1CEE1CFF1CDC01CB0182
S11306B0880F991FAA1FBB1F880F991FAA1FBB1F52
S11306C09C01AD01220F331F441F551F220F331FFE
S11306D0441F551FC701B60114D02150310930936E
S11306E0D5002093D4001F910F91FF90EF90DF90DD
S11306F0CF9008959091D00095FFFCCF8093D600C1
S11307000895A1E21A2EAA1BBB1BFD010DC0AA1F4E
S1130710BB1FEE1FFF1FA217B307E407F50720F066
S1130720A21BB30BE40BF50B661F771F881F991FE1
S11307301A9469F760957095809590959B01AC012A
S1130740BD01CF010895EE0FFF1F881F8BBF0790D7
S10D0750F691E02D1994F894FFCF00
S9030000FC
