S010000050726F6A656374312E737265630C
S113000089C00000B0C100003FC20000A2C00000CF
S1130010A0C000009EC000009CC000009AC0000068
S113002098C0000096C0000094C0000092C0000078
S113003090C000008EC000008CC000008AC0000088
S113004088C0000086C0000084C0000082C0000098
S113005080C000007EC000007CC000007AC00000A8
S113006078C0000076C0000074C0000072C00000B8
S113007070C000006EC000006CC000006AC00000C8
S113008068C0000066C0000064C0000000C1000039
S113009060C000005EC000005CC000005AC00000E8
S11300A058C0000056C0000054C0000052C00000F8
S11300B050C000004EC000004CC000004AC0000008
S11300C048C0000046C0000044C0000042C0000018
S11300D040C000003EC000003CC000003AC0000028
S11300E038C00000D601D901DC01E201E801F101C8
S11300F0F4010402070217021A021D0267026A02CF
S11301006D02730279028202850295029802A802A6
S1130110AB02AE0211241FBECFEFD1E2DEBFCDBFD2
S113012000E00CBF12E0A0E0B2E0E0E1F7E000E0A4
S11301300BBF02C007900D92A030B107D9F722E09F
S1130140A0E0B2E001C01D92AA30B207E1F72DD2BF
S1130150DDC256CF8FEF80930101E1EAF0E08081A8
S113016081608083E0EAF0E0808183608083808125
S1130170806A808380818F7A8083E8EAF0E011824C
S1130180108211821082089584EF91E09093A90067
S11301908093A80080E593EC9093AB008093AA0031
S11301A008951092A9001092A8001092AB0010922A
S11301B0AA000895992324F09093AB008093AA0099
S11301C00895209102028091010290E0820F911D16
S11301D020910002820F911D919581959109809340
S11301E00902881B9109909308020895EADF8EE7BB
S11301F05CD28091020259D280E057D280910102F0
S113020054D28091000251D2809108024ED2809142
S113021009024BD28FEE49C2089548E060E875E2C6
S113022080E090E0E8D189E08093020282E080934C
S11302300002DCCF08958093000283E080930202E1
S1130240D5CF08958F3108F08EE196E090930202A5
S113025080930002CBCF08958FEF84B97894E1E7BF
S1130260F0E0808180831092900082E0809391007E
S113027083EA8093800081E080938100109289005A
S11302801092880010928B0010928A0008951F9299
S11302900F920FB60F9211240BB60F928F939F9368
S11302A0EF93FF9380910502882381F090910302DC
S11302B080910402981720F48150809304020AC0AC
S11302C0891740F48F5F8093040204C08091030275
S11302D08093040280910602811110C010928B0059
S11302E010928A008091040290E0880F991F880F71
S11302F0991F90938900809388000FC01092890001
S1130300109288008091040290E0880F991F880F52
S1130310991F90938B0080938A009091040280919E
S11303200302981304C0E1E7F0E080818083FF9129
S1130330EF919F918F910F900BBE0F900FBE0F9076
S11303401F9018958093030260930502E1E7F0E0A3
S113035080818160808308959091060281E08927DD
S11303608093060208951F920F920FB60F921124E4
S11303700BB60F922F933F934F935F936F937F939B
S11303808F939F93AF93BF93EF93FF938091070253
S11303908F5F8093070290E08C30910508F053C082
S11303A0FC018827EE58FF4F8F4FA8C182E043DF3E
S11303B04AC082E040DF47C082E03DDF60E08FEF6B
S11303C0C1DF41C082E037DF60E08AE0BBDF3BC0D1
S11303D082E031DF60E084E6B5DF61E08FEFB2DF19
S11303E032C082E028DF2FC082E025DFB5DF8FEF47
S11303F09FEFE0DE60E08EE1A5DF61E088ECA2DF44
S113040080E197E2D7DE1FC082E015DF1CC082E0E6
S113041012DFA2DF8FEF9FEFCDDE60E088E192DF95
S113042061E084EB8FDF80E197E2C4DE0CC082E000
S113043002DF09C082E0FFDE06C083E0FCDE60E08C
S113044080E080DFAEDE2FEF84E39CE0215080402B
S11304509040E1F700C000008FEF8CBB8DB3836048
S11304608DBBFF91EF91BF91AF919F918F917F9140
S11304706F915F914F913F912F910F900BBE0F9011
S11304800FBE0F901F9018951F920F920FB60F92E8
S113049011240BB60F922F933F934F935F936F9357
S11304A07F938F939F93AF93BF93EF93FF93809129
S11304B007028F5F8093070290E08C30910508F06B
S11304C053C0FC018827E258FF4F8F4F17C182E0C9
S11304D0B2DE4AC082E0AFDE47C082E0ACDE60E05C
S11304E08FEF30DF41C082E0A6DE60E08AE02ADFE1
S11304F03BC082E0A0DE60E084E624DF61E08FEFB1
S113050021DF32C082E097DE2FC082E094DE24DF58
S11305108FEF9FEF4FDE60E08EE114DF61E088EC47
S113052011DF80E197E246DE1FC082E084DE1CC05A
S113053082E081DE11DF8FEF9FEF3CDE60E088E137
S113054001DF61E084EBFEDE80E197E233DE0CC084
S113055082E071DE09C082E06EDE06C083E06BDEFD
S113056060E080E0EFDE1DDE2FEF84E39CE02150AD
S113057080409040E1F700C000008FEF8CBB8DB34A
S113058083608DBBFF91EF91BF91AF919F918F914C
S11305907F916F915F914F913F912F910F900BBE7F
S11305A00F900FBE0F901F901895789455DE35DE8E
S11305B0D1DD8FEF84B911B88FE0809369008EE1AB
S11305C041DE109207020099FECF8DB383608DBB8C
S11305D0DBDD81E030DE2FEF87EA91E621508040B9
S11305E09040E1F700C0000060E082E3ABDE61E030
S11305F08FEFA8DEE8CFCF92DF92EF92FF920F93B6
S11306001F938B019C010C52114021093109053DB6
S1130610104C2140310508F041C0453008F43EC07B
S11306204930E0F520E22093D00028E12093D10066
S11306304550440F4093D2006B017C0120E8C20E68
S113064024E8D21E2EE1E21EF11CCC0CDD1CEE1CB3
S1130650FF1CCC0CDD1CEE1CFF1CCC0CDD1CEE1CAA
S1130660FF1CDC01CB01880F991FAA1FBB1F880F39
S1130670991FAA1FBB1F9C01AD01220F331F441FEA
S1130680551F220F331F441F551FC701B60114D035
S1130690215031093093D5002093D4001F910F913C
S11306A0FF90EF90DF90CF9008959091D00095FF48
S11306B0FCCF8093D6000895A1E21A2EAA1BBB1B7F
S11306C0FD010DC0AA1FBB1FEE1FFF1FA217B3071A
S11306D0E407F50720F0A21BB30BE40BF50B661F30
S11306E0771F881F991F1A9469F7609570958095F4
S11306F090959B01AC01BD01CF010895EE0FFF1F42
S1130700881F8BBF0790F691E02D1994F894FFCFC2
S9030000FC
